{
  "contractName": "Pixura",
  "abi": [
    {
      "constant": false,
      "inputs": [
        {
          "name": "_to",
          "type": "address"
        },
        {
          "name": "_tokenId",
          "type": "uint256"
        }
      ],
      "name": "approve",
      "outputs": [],
      "payable": false,
      "stateMutability": "nonpayable",
      "type": "function"
    },
    {
      "constant": true,
      "inputs": [],
      "name": "totalSupply",
      "outputs": [
        {
          "name": "",
          "type": "uint256"
        }
      ],
      "payable": false,
      "stateMutability": "view",
      "type": "function"
    },
    {
      "constant": true,
      "inputs": [
        {
          "name": "_tokenId",
          "type": "uint256"
        }
      ],
      "name": "currentBidDetailsOfToken",
      "outputs": [
        {
          "name": "",
          "type": "uint256"
        },
        {
          "name": "",
          "type": "address"
        }
      ],
      "payable": false,
      "stateMutability": "view",
      "type": "function"
    },
    {
      "constant": true,
      "inputs": [
        {
          "name": "_tokenId",
          "type": "uint256"
        }
      ],
      "name": "instagramIdOfToken",
      "outputs": [
        {
          "name": "",
          "type": "string"
        }
      ],
      "payable": false,
      "stateMutability": "view",
      "type": "function"
    },
    {
      "constant": true,
      "inputs": [
        {
          "name": "_tokenId",
          "type": "uint256"
        }
      ],
      "name": "approvedFor",
      "outputs": [
        {
          "name": "",
          "type": "address"
        }
      ],
      "payable": false,
      "stateMutability": "view",
      "type": "function"
    },
    {
      "constant": false,
      "inputs": [
        {
          "name": "_tokenId",
          "type": "uint256"
        }
      ],
      "name": "acceptBid",
      "outputs": [],
      "payable": false,
      "stateMutability": "nonpayable",
      "type": "function"
    },
    {
      "constant": false,
      "inputs": [
        {
          "name": "_tokenId",
          "type": "uint256"
        }
      ],
      "name": "bid",
      "outputs": [],
      "payable": true,
      "stateMutability": "payable",
      "type": "function"
    },
    {
      "constant": true,
      "inputs": [
        {
          "name": "_owner",
          "type": "address"
        }
      ],
      "name": "tokensOf",
      "outputs": [
        {
          "name": "",
          "type": "uint256[]"
        }
      ],
      "payable": false,
      "stateMutability": "view",
      "type": "function"
    },
    {
      "constant": true,
      "inputs": [
        {
          "name": "_tokenId",
          "type": "uint256"
        }
      ],
      "name": "ownerOf",
      "outputs": [
        {
          "name": "",
          "type": "address"
        }
      ],
      "payable": false,
      "stateMutability": "view",
      "type": "function"
    },
    {
      "constant": true,
      "inputs": [
        {
          "name": "_owner",
          "type": "address"
        }
      ],
      "name": "balanceOf",
      "outputs": [
        {
          "name": "",
          "type": "uint256"
        }
      ],
      "payable": false,
      "stateMutability": "view",
      "type": "function"
    },
    {
      "constant": true,
      "inputs": [
        {
          "name": "_instagramId",
          "type": "string"
        }
      ],
      "name": "tokenOfInstagramId",
      "outputs": [
        {
          "name": "",
          "type": "uint256"
        }
      ],
      "payable": false,
      "stateMutability": "view",
      "type": "function"
    },
    {
      "constant": true,
      "inputs": [],
      "name": "owner",
      "outputs": [
        {
          "name": "",
          "type": "address"
        }
      ],
      "payable": false,
      "stateMutability": "view",
      "type": "function"
    },
    {
      "constant": false,
      "inputs": [
        {
          "name": "_to",
          "type": "address"
        },
        {
          "name": "_tokenId",
          "type": "uint256"
        }
      ],
      "name": "transfer",
      "outputs": [],
      "payable": false,
      "stateMutability": "nonpayable",
      "type": "function"
    },
    {
      "constant": false,
      "inputs": [
        {
          "name": "_tokenId",
          "type": "uint256"
        }
      ],
      "name": "takeOwnership",
      "outputs": [],
      "payable": false,
      "stateMutability": "nonpayable",
      "type": "function"
    },
    {
      "constant": true,
      "inputs": [
        {
          "name": "_tokenId",
          "type": "uint256"
        }
      ],
      "name": "creatorOfToken",
      "outputs": [
        {
          "name": "",
          "type": "address"
        }
      ],
      "payable": false,
      "stateMutability": "view",
      "type": "function"
    },
    {
      "constant": false,
      "inputs": [
        {
          "name": "_instagramId",
          "type": "string"
        }
      ],
      "name": "addNewToken",
      "outputs": [],
      "payable": false,
      "stateMutability": "nonpayable",
      "type": "function"
    },
    {
      "constant": false,
      "inputs": [
        {
          "name": "newOwner",
          "type": "address"
        }
      ],
      "name": "transferOwnership",
      "outputs": [],
      "payable": false,
      "stateMutability": "nonpayable",
      "type": "function"
    },
    {
      "anonymous": false,
      "inputs": [
        {
          "indexed": true,
          "name": "_bidder",
          "type": "address"
        },
        {
          "indexed": true,
          "name": "_bidAmount",
          "type": "uint256"
        },
        {
          "indexed": true,
          "name": "_bidTokenId",
          "type": "uint256"
        }
      ],
      "name": "Bid",
      "type": "event"
    },
    {
      "anonymous": false,
      "inputs": [
        {
          "indexed": true,
          "name": "_acceptedBidAmount",
          "type": "uint256"
        },
        {
          "indexed": true,
          "name": "_acceptedTokenId",
          "type": "uint256"
        },
        {
          "indexed": true,
          "name": "_acceptedBidder",
          "type": "address"
        }
      ],
      "name": "AcceptBid",
      "type": "event"
    },
    {
      "anonymous": false,
      "inputs": [
        {
          "indexed": true,
          "name": "previousOwner",
          "type": "address"
        },
        {
          "indexed": true,
          "name": "newOwner",
          "type": "address"
        }
      ],
      "name": "OwnershipTransferred",
      "type": "event"
    },
    {
      "anonymous": false,
      "inputs": [
        {
          "indexed": true,
          "name": "_from",
          "type": "address"
        },
        {
          "indexed": true,
          "name": "_to",
          "type": "address"
        },
        {
          "indexed": false,
          "name": "_tokenId",
          "type": "uint256"
        }
      ],
      "name": "Transfer",
      "type": "event"
    },
    {
      "anonymous": false,
      "inputs": [
        {
          "indexed": true,
          "name": "_owner",
          "type": "address"
        },
        {
          "indexed": true,
          "name": "_approved",
          "type": "address"
        },
        {
          "indexed": false,
          "name": "_tokenId",
          "type": "uint256"
        }
      ],
      "name": "Approval",
      "type": "event"
    }
  ],
  "bytecode": "0x606060405233600560006101000a81548173ffffffffffffffffffffffffffffffffffffffff021916908373ffffffffffffffffffffffffffffffffffffffff160217905550611cbd806100546000396000f3006060604052600436106100f1576000357c0100000000000000000000000000000000000000000000000000000000900463ffffffff168063095ea7b3146100f657806318160ddd146101385780631a289aea1461016157806328a196ac146101cb5780632a6dd48f146102675780632b1fd58a146102ca578063454a2ab3146102ed5780635a3f2672146103055780636352211e1461039357806370a08231146103f65780638b719ac8146104435780638da5cb5b146104b4578063a9059cbb14610509578063b2e6ceeb1461054b578063d5da8d441461056e578063d9856c21146105d1578063f2fde38b1461062e575b600080fd5b341561010157600080fd5b610136600480803573ffffffffffffffffffffffffffffffffffffffff16906020019091908035906020019091905050610667565b005b341561014357600080fd5b61014b6107fa565b6040518082815260200191505060405180910390f35b341561016c57600080fd5b6101826004808035906020019091905050610803565b604051808381526020018273ffffffffffffffffffffffffffffffffffffffff1673ffffffffffffffffffffffffffffffffffffffff1681526020019250505060405180910390f35b34156101d657600080fd5b6101ec6004808035906020019091905050610857565b6040518080602001828103825283818151815260200191508051906020019080838360005b8381101561022c578082015181840152602081019050610211565b50505050905090810190601f1680156102595780820380516001836020036101000a031916815260200191505b509250505060405180910390f35b341561027257600080fd5b6102886004808035906020019091905050610912565b604051808273ffffffffffffffffffffffffffffffffffffffff1673ffffffffffffffffffffffffffffffffffffffff16815260200191505060405180910390f35b34156102d557600080fd5b6102eb600480803590602001909190505061094f565b005b6103036004808035906020019091905050610ab4565b005b341561031057600080fd5b61033c600480803573ffffffffffffffffffffffffffffffffffffffff16906020019091905050610bb8565b6040518080602001828103825283818151815260200191508051906020019060200280838360005b8381101561037f578082015181840152602081019050610364565b505050509050019250505060405180910390f35b341561039e57600080fd5b6103b46004808035906020019091905050610c55565b604051808273ffffffffffffffffffffffffffffffffffffffff1673ffffffffffffffffffffffffffffffffffffffff16815260200191505060405180910390f35b341561040157600080fd5b61042d600480803573ffffffffffffffffffffffffffffffffffffffff16906020019091905050610cd3565b6040518082815260200191505060405180910390f35b341561044e57600080fd5b61049e600480803590602001908201803590602001908080601f01602080910402602001604051908101604052809392919081815260200183838082843782019150505050505091905050610d1f565b6040518082815260200191505060405180910390f35b34156104bf57600080fd5b6104c7610d94565b604051808273ffffffffffffffffffffffffffffffffffffffff1673ffffffffffffffffffffffffffffffffffffffff16815260200191505060405180910390f35b341561051457600080fd5b610549600480803573ffffffffffffffffffffffffffffffffffffffff16906020019091908035906020019091905050610dba565b005b341561055657600080fd5b61056c6004808035906020019091905050610e0d565b005b341561057957600080fd5b61058f6004808035906020019091905050610e38565b604051808273ffffffffffffffffffffffffffffffffffffffff1673ffffffffffffffffffffffffffffffffffffffff16815260200191505060405180910390f35b34156105dc57600080fd5b61062c600480803590602001908201803590602001908080601f01602080910402602001604051908101604052809392919081815260200183838082843782019150505050505091905050610e75565b005b341561063957600080fd5b610665600480803573ffffffffffffffffffffffffffffffffffffffff16906020019091905050610ff8565b005b6000813373ffffffffffffffffffffffffffffffffffffffff1661068a82610c55565b73ffffffffffffffffffffffffffffffffffffffff161415156106ac57600080fd5b6106b583610c55565b91508173ffffffffffffffffffffffffffffffffffffffff168473ffffffffffffffffffffffffffffffffffffffff16141515156106f257600080fd5b60006106fd84610912565b73ffffffffffffffffffffffffffffffffffffffff16141580610737575060008473ffffffffffffffffffffffffffffffffffffffff1614155b156107f457836002600085815260200190815260200160002060006101000a81548173ffffffffffffffffffffffffffffffffffffffff021916908373ffffffffffffffffffffffffffffffffffffffff1602179055508373ffffffffffffffffffffffffffffffffffffffff168273ffffffffffffffffffffffffffffffffffffffff167f8c5be1e5ebec7d5bd14f71427d1e84f3dd0314c0f7b2291e5b200ac8c7c3b925856040518082815260200191505060405180910390a35b50505050565b60008054905090565b60008060096000848152602001908152602001600020546008600085815260200190815260200160002060009054906101000a900473ffffffffffffffffffffffffffffffffffffffff1691509150915091565b61085f611b6c565b600660008381526020019081526020016000208054600181600116156101000203166002900480601f0160208091040260200160405190810160405280929190818152602001828054600181600116156101000203166002900480156109065780601f106108db57610100808354040283529160200191610906565b820191906000526020600020905b8154815290600101906020018083116108e957829003601f168201915b50505050509050919050565b60006002600083815260200190815260200160002060009054906101000a900473ffffffffffffffffffffffffffffffffffffffff169050919050565b600080600080843373ffffffffffffffffffffffffffffffffffffffff1661097682610c55565b73ffffffffffffffffffffffffffffffffffffffff1614151561099857600080fd5b600960008781526020019081526020016000205494506008600087815260200190815260200160002060009054906101000a900473ffffffffffffffffffffffffffffffffffffffff1693506109ed86610c55565b9250600a600087815260200190815260200160002060009054906101000a900473ffffffffffffffffffffffffffffffffffffffff169150610a5385600560009054906101000a900473ffffffffffffffffffffffffffffffffffffffff168486611150565b610a5e338588611297565b610a67866113e0565b8373ffffffffffffffffffffffffffffffffffffffff1686867f983d48a01682d9d685ad6c8ca05e9a502e92ac77d31068087c40a7f9a329e9a360405160405180910390a4505050505050565b6000610abf82610c55565b90508073ffffffffffffffffffffffffffffffffffffffff163373ffffffffffffffffffffffffffffffffffffffff1614151515610afc57600080fd5b610b058261144f565b336008600084815260200190815260200160002060006101000a81548173ffffffffffffffffffffffffffffffffffffffff021916908373ffffffffffffffffffffffffffffffffffffffff16021790555034600960008481526020019081526020016000208190555081343373ffffffffffffffffffffffffffffffffffffffff167f19421268847f42dd61705778018ddfc43bcdce8517e7a630acb12f122c70948160405160405180910390a45050565b610bc0611b80565b600360008373ffffffffffffffffffffffffffffffffffffffff1673ffffffffffffffffffffffffffffffffffffffff168152602001908152602001600020805480602002602001604051908101604052809291908181526020018280548015610c4957602002820191906000526020600020905b815481526020019060010190808311610c35575b50505050509050919050565b6000806001600084815260200190815260200160002060009054906101000a900473ffffffffffffffffffffffffffffffffffffffff169050600073ffffffffffffffffffffffffffffffffffffffff168173ffffffffffffffffffffffffffffffffffffffff1614151515610cca57600080fd5b80915050919050565b6000600360008373ffffffffffffffffffffffffffffffffffffffff1673ffffffffffffffffffffffffffffffffffffffff168152602001908152602001600020805490509050919050565b60006007826040518082805190602001908083835b602083101515610d595780518252602082019150602081019050602083039250610d34565b6001836020036101000a0380198251168184511680821785525050505050509050019150509081526020016040518091039020549050919050565b600560009054906101000a900473ffffffffffffffffffffffffffffffffffffffff1681565b803373ffffffffffffffffffffffffffffffffffffffff16610ddb82610c55565b73ffffffffffffffffffffffffffffffffffffffff16141515610dfd57600080fd5b610e08338484611297565b505050565b610e173382611528565b1515610e2257600080fd5b610e35610e2e82610c55565b3383611297565b50565b6000600a600083815260200190815260200160002060009054906101000a900473ffffffffffffffffffffffffffffffffffffffff169050919050565b60008160006007826040518082805190602001908083835b602083101515610eb25780518252602082019150602081019050602083039250610e8d565b6001836020036101000a038019825116818451168082178552505050505050905001915050908152602001604051809103902054141515610ef257600080fd5b6001610efc6107fa565b019150610f093383611569565b82600660008481526020019081526020016000209080519060200190610f30929190611b94565b5033600a600084815260200190815260200160002060006101000a81548173ffffffffffffffffffffffffffffffffffffffff021916908373ffffffffffffffffffffffffffffffffffffffff160217905550816007846040518082805190602001908083835b602083101515610fbc5780518252602082019150602081019050602083039250610f97565b6001836020036101000a038019825116818451168082178552505050505050905001915050908152602001604051809103902081905550505050565b600560009054906101000a900473ffffffffffffffffffffffffffffffffffffffff1673ffffffffffffffffffffffffffffffffffffffff163373ffffffffffffffffffffffffffffffffffffffff1614151561105457600080fd5b600073ffffffffffffffffffffffffffffffffffffffff168173ffffffffffffffffffffffffffffffffffffffff161415151561109057600080fd5b8073ffffffffffffffffffffffffffffffffffffffff16600560009054906101000a900473ffffffffffffffffffffffffffffffffffffffff1673ffffffffffffffffffffffffffffffffffffffff167f8be0079c531659141344cd1fd0a4f28419497f9722a3daafe3b4186f6b6457e060405160405180910390a380600560006101000a81548173ffffffffffffffffffffffffffffffffffffffff021916908373ffffffffffffffffffffffffffffffffffffffff16021790555050565b600080600061117c606461116e60038a61160390919063ffffffff16565b61163e90919063ffffffff16565b92506111a56064611197600a8a61160390919063ffffffff16565b61163e90919063ffffffff16565b91506111cc836111be848a61165990919063ffffffff16565b61165990919063ffffffff16565b90508573ffffffffffffffffffffffffffffffffffffffff166108fc839081150290604051600060405180830381858888f19350505050151561120e57600080fd5b8473ffffffffffffffffffffffffffffffffffffffff166108fc839081150290604051600060405180830381858888f19350505050151561124e57600080fd5b8373ffffffffffffffffffffffffffffffffffffffff166108fc829081150290604051600060405180830381858888f19350505050151561128e57600080fd5b50505050505050565b600073ffffffffffffffffffffffffffffffffffffffff168273ffffffffffffffffffffffffffffffffffffffff16141515156112d357600080fd5b6112dc81610c55565b73ffffffffffffffffffffffffffffffffffffffff168273ffffffffffffffffffffffffffffffffffffffff161415151561131657600080fd5b8273ffffffffffffffffffffffffffffffffffffffff1661133682610c55565b73ffffffffffffffffffffffffffffffffffffffff1614151561135857600080fd5b6113628382611672565b61136c838261175b565b61137682826119e3565b8173ffffffffffffffffffffffffffffffffffffffff168373ffffffffffffffffffffffffffffffffffffffff167fddf252ad1be2c89b69c2b068fc378daa952ba7f163c4a11628f55a4df523b3ef836040518082815260200191505060405180910390a3505050565b60006008600083815260200190815260200160002060006101000a81548173ffffffffffffffffffffffffffffffffffffffff021916908373ffffffffffffffffffffffffffffffffffffffff1602179055506000600960008381526020019081526020016000208190555050565b600080600960008481526020019081526020016000205491506008600084815260200190815260200160002060009054906101000a900473ffffffffffffffffffffffffffffffffffffffff16905081341115156114ac57600080fd5b600073ffffffffffffffffffffffffffffffffffffffff168173ffffffffffffffffffffffffffffffffffffffff16141515611523578073ffffffffffffffffffffffffffffffffffffffff166108fc839081150290604051600060405180830381858888f19350505050151561152257600080fd5b5b505050565b60008273ffffffffffffffffffffffffffffffffffffffff1661154a83610912565b73ffffffffffffffffffffffffffffffffffffffff1614905092915050565b600073ffffffffffffffffffffffffffffffffffffffff168273ffffffffffffffffffffffffffffffffffffffff16141515156115a557600080fd5b6115af82826119e3565b8173ffffffffffffffffffffffffffffffffffffffff1660007fddf252ad1be2c89b69c2b068fc378daa952ba7f163c4a11628f55a4df523b3ef836040518082815260200191505060405180910390a35050565b60008060008414156116185760009150611637565b828402905082848281151561162957fe5b0414151561163357fe5b8091505b5092915050565b600080828481151561164c57fe5b0490508091505092915050565b600082821115151561166757fe5b818303905092915050565b8173ffffffffffffffffffffffffffffffffffffffff1661169282610c55565b73ffffffffffffffffffffffffffffffffffffffff161415156116b457600080fd5b60006002600083815260200190815260200160002060006101000a81548173ffffffffffffffffffffffffffffffffffffffff021916908373ffffffffffffffffffffffffffffffffffffffff16021790555060008273ffffffffffffffffffffffffffffffffffffffff167f8c5be1e5ebec7d5bd14f71427d1e84f3dd0314c0f7b2291e5b200ac8c7c3b925836040518082815260200191505060405180910390a35050565b60008060008473ffffffffffffffffffffffffffffffffffffffff1661178085610c55565b73ffffffffffffffffffffffffffffffffffffffff161415156117a257600080fd5b600460008581526020019081526020016000205492506117d460016117c687610cd3565b61165990919063ffffffff16565b9150600360008673ffffffffffffffffffffffffffffffffffffffff1673ffffffffffffffffffffffffffffffffffffffff1681526020019081526020016000208281548110151561182257fe5b906000526020600020900154905060006001600086815260200190815260200160002060006101000a81548173ffffffffffffffffffffffffffffffffffffffff021916908373ffffffffffffffffffffffffffffffffffffffff16021790555080600360008773ffffffffffffffffffffffffffffffffffffffff1673ffffffffffffffffffffffffffffffffffffffff168152602001908152602001600020848154811015156118d057fe5b9060005260206000209001819055506000600360008773ffffffffffffffffffffffffffffffffffffffff1673ffffffffffffffffffffffffffffffffffffffff1681526020019081526020016000208381548110151561192d57fe5b906000526020600020900181905550600360008673ffffffffffffffffffffffffffffffffffffffff1673ffffffffffffffffffffffffffffffffffffffff16815260200190815260200160002080548091906001900361198e9190611c14565b50600060046000868152602001908152602001600020819055508260046000838152602001908152602001600020819055506119d6600160005461165990919063ffffffff16565b6000819055505050505050565b60008073ffffffffffffffffffffffffffffffffffffffff166001600084815260200190815260200160002060009054906101000a900473ffffffffffffffffffffffffffffffffffffffff1673ffffffffffffffffffffffffffffffffffffffff16141515611a5257600080fd5b826001600084815260200190815260200160002060006101000a81548173ffffffffffffffffffffffffffffffffffffffff021916908373ffffffffffffffffffffffffffffffffffffffff160217905550611aad83610cd3565b9050600360008473ffffffffffffffffffffffffffffffffffffffff1673ffffffffffffffffffffffffffffffffffffffff1681526020019081526020016000208054806001018281611b009190611c40565b916000526020600020900160008490919091505550806004600084815260200190815260200160002081905550611b436001600054611b4e90919063ffffffff16565b600081905550505050565b6000808284019050838110151515611b6257fe5b8091505092915050565b602060405190810160405280600081525090565b602060405190810160405280600081525090565b828054600181600116156101000203166002900490600052602060002090601f016020900481019282601f10611bd557805160ff1916838001178555611c03565b82800160010185558215611c03579182015b82811115611c02578251825591602001919060010190611be7565b5b509050611c109190611c6c565b5090565b815481835581811511611c3b57818360005260206000209182019101611c3a9190611c6c565b5b505050565b815481835581811511611c6757818360005260206000209182019101611c669190611c6c565b5b505050565b611c8e91905b80821115611c8a576000816000905550600101611c72565b5090565b905600a165627a7a723058200f1f6f15ac6d370476b1786c7f64867642a782348536ad2eb4b2fdaa79d645b10029",
  "source": "pragma solidity ^0.4.18;\n\nimport '../node_modules/zeppelin-solidity/contracts/token/ERC721/ERC721Token.sol';\nimport '../node_modules/zeppelin-solidity/contracts/ownership/Ownable.sol';\nimport '../node_modules/zeppelin-solidity/contracts/math/SafeMath.sol';\n\ncontract Pixura is ERC721Token,Ownable {\n\n  // Mapping from token ID to the instagram ID\n  mapping(uint256 => string) private tokenInstagramId;\n\n  // Mapping from instragram ID to the token ID\n  mapping(string => uint) private instagramIdToken;\n\n  // Mapping from token ID to the address bidding\n  mapping(uint256 => address) private tokenBidder;\n\n  // Mapping from token ID to the current bid amount\n  mapping(uint256 => uint) private tokenCurrentBid;\n\n  // Mapping from token ID to the creator's address\n  mapping(uint256 => address) private tokenCreator;\n\n\n  event Bid(address indexed _bidder, uint256 indexed _bidAmount, uint256 indexed _bidTokenId);\n  event AcceptBid(uint256 indexed _acceptedBidAmount, uint256 indexed _acceptedTokenId, address indexed _acceptedBidder);\n\n  /**\n   * @dev Guarantees _instagramId has not been used with a token already\n   * @param _instagramId string ID of the instagram ID associated with the token\n   */\n  modifier uniqueInstagramId(string _instagramId) {\n    require(instagramIdToken[_instagramId] == 0);\n    _;\n\n  }\n\n  /**\n   * @dev Adds a new unique token to the supply\n   * @param _instagramId string Instagram ID associated with the token\n   */\n  function addNewToken(string _instagramId) public uniqueInstagramId(_instagramId) {\n    uint256 newId = totalSupply() + 1;\n    _mint(msg.sender,newId);\n    tokenInstagramId[newId] = _instagramId;\n    tokenCreator[newId] = msg.sender;\n    instagramIdToken[_instagramId] = newId;\n\n  }\n\n  /**\n   * @dev Gets the instagram ID of the specified token ID\n   * @param _tokenId uint256 ID of the token to query the instragram ID\n   * @return instagram ID currently marked for the given token ID\n   */\n  function instagramIdOfToken(uint256 _tokenId) public view returns (string) {\n    return tokenInstagramId[_tokenId];\n\n  }\n\n  /**\n   * @dev Gets the token ID of the specified token instragram ID\n   * @param _instagramId string ID of the instagram to query the token ID\n   * @return token ID currently marked for the given instragram ID\n   */\n  function tokenOfInstagramId(string _instagramId) public view returns (uint256) {\n    return instagramIdToken[_instagramId];\n\n  }\n\n  /**\n   * @dev Gets the current bid and bidder of the token\n   * @param _tokenId uint256 ID of the token to get bid details\n   * @return bid amount and bidder address of token\n   */\n  function currentBidDetailsOfToken(uint256 _tokenId) public view returns (uint256,address) {\n    return (tokenCurrentBid[_tokenId],tokenBidder[_tokenId]);\n\n  }\n\n  /**\n   * @dev Gets the creator of the token\n   * @param _tokenId uint256 ID of the token\n   * @return address of the creator\n   */\n  function creatorOfToken(uint256 _tokenId) public view returns (address) {\n    return (tokenCreator[_tokenId]);\n\n  }\n\n  /**\n   * @dev Bids on the token, replacing the bid if the bid is higher than the current bid. You cannot bid on a token you already own.\n   * @param _tokenId uint256 ID of the token to bid on\n   */\n  function bid(uint256 _tokenId) public payable {\n    address owner = ownerOf(_tokenId);\n    require(msg.sender != owner);\n    checkBidAndReturnCurrentBid(_tokenId);\n    tokenBidder[_tokenId] = msg.sender;\n    tokenCurrentBid[_tokenId] = msg.value;\n    Bid(msg.sender, msg.value, _tokenId);\n\n  }\n\n  /**\n   * @dev Accept the bid on the token, transferring ownership to the current bidder and paying out the owner.\n   * @param _tokenId uint256 ID of the token with the standing bid\n   */\n  function acceptBid(uint256 _tokenId) public onlyOwnerOf(_tokenId) {\n    uint256 currentBid = tokenCurrentBid[_tokenId];\n    address currentBidder = tokenBidder[_tokenId];\n    address tokenOwner = ownerOf(_tokenId);\n    address creator = tokenCreator[_tokenId];\n    payoutAcceptedBid(currentBid, owner, creator, tokenOwner);\n    clearApprovalAndTransfer(msg.sender, currentBidder, _tokenId);\n    clearBid(_tokenId);\n    AcceptBid(currentBid, _tokenId, currentBidder);\n\n  }\n\n  /**\n   * @dev Internal function to check that the bid is larger than current bid and returns funds to current bidder.\n   * @param _tokenId uint256 ID of the token with the standing bid\n   */\n  function checkBidAndReturnCurrentBid(uint256 _tokenId) private {\n    uint256 currentBid = tokenCurrentBid[_tokenId];\n    address currentBidder = tokenBidder[_tokenId];\n    require(msg.value > currentBid);\n    if(currentBidder != address(0)) {\n      currentBidder.transfer(currentBid);\n\n    }\n\n  }\n\n  /**\n   * @dev Internal function to clear bid\n   * @param _tokenId uint256 ID of the token with the standing bid\n   */\n  function clearBid(uint256 _tokenId) private {\n    tokenBidder[_tokenId] = address(0);\n    tokenCurrentBid[_tokenId] = 0;\n\n  }\n\n  /**\n   * @dev Internal function to pay the bidder, creator, and maintainer\n   * @param _val uint256 value to be split\n   * @param _maintainer address of account maintaining PIXURA\n   * @param _creator address of the creator of token\n   * @param _owner address of the owner of token\n   */\n  function payoutAcceptedBid(uint256 _val, address _maintainer, address _creator, address _owner) private {\n    uint256 maintainerPayment = _val.mul(3).div(100);\n    uint256 creatorPayment = _val.mul(10).div(100);\n    uint256 ownerPayment = _val.sub(creatorPayment).sub(maintainerPayment);\n    _maintainer.transfer(creatorPayment);\n    _creator.transfer(creatorPayment);\n    _owner.transfer(ownerPayment);\n\n  }\n\n\n}\n",
  "sourcePath": "/Users/jcrain/Dev/Pixura/pixura-contracts/contracts/Pixura.sol",
  "compiler": {
    "name": "solc",
    "version": "0.4.18+commit.9cf6e910.Emscripten.clang"
  },
  "schemaVersion": "1.0.1",
  "updatedAt": "2018-02-18T07:30:41.137Z"
}